{
  "_format": "hh-sol-artifact-1",
  "contractName": "LazyMintNFT",
  "sourceName": "contracts/LazyMintNFT.sol",
  "abi": [
    {
      "inputs": [
        {
          "internalType": "string",
          "name": "name",
          "type": "string"
        },
        {
          "internalType": "string",
          "name": "symbol",
          "type": "string"
        },
        {
          "internalType": "address",
          "name": "_authorizedSigner",
          "type": "address"
        },
        {
          "internalType": "address[]",
          "name": "payees",
          "type": "address[]"
        },
        {
          "internalType": "uint256[]",
          "name": "shares_",
          "type": "uint256[]"
        }
      ],
      "stateMutability": "nonpayable",
      "type": "constructor"
    },
    {
      "inputs": [],
      "name": "InvalidShortString",
      "type": "error"
    },
    {
      "inputs": [
        {
          "internalType": "string",
          "name": "str",
          "type": "string"
        }
      ],
      "name": "StringTooLong",
      "type": "error"
    },
    {
      "anonymous": false,
      "inputs": [
        {
          "indexed": true,
          "internalType": "address",
          "name": "owner",
          "type": "address"
        },
        {
          "indexed": true,
          "internalType": "address",
          "name": "approved",
          "type": "address"
        },
        {
          "indexed": true,
          "internalType": "uint256",
          "name": "tokenId",
          "type": "uint256"
        }
      ],
      "name": "Approval",
      "type": "event"
    },
    {
      "anonymous": false,
      "inputs": [
        {
          "indexed": true,
          "internalType": "address",
          "name": "owner",
          "type": "address"
        },
        {
          "indexed": true,
          "internalType": "address",
          "name": "operator",
          "type": "address"
        },
        {
          "indexed": false,
          "internalType": "bool",
          "name": "approved",
          "type": "bool"
        }
      ],
      "name": "ApprovalForAll",
      "type": "event"
    },
    {
      "anonymous": false,
      "inputs": [
        {
          "indexed": false,
          "internalType": "uint256",
          "name": "_fromTokenId",
          "type": "uint256"
        },
        {
          "indexed": false,
          "internalType": "uint256",
          "name": "_toTokenId",
          "type": "uint256"
        }
      ],
      "name": "BatchMetadataUpdate",
      "type": "event"
    },
    {
      "anonymous": false,
      "inputs": [],
      "name": "EIP712DomainChanged",
      "type": "event"
    },
    {
      "anonymous": false,
      "inputs": [
        {
          "indexed": true,
          "internalType": "address",
          "name": "to",
          "type": "address"
        },
        {
          "indexed": true,
          "internalType": "uint256",
          "name": "tokenId",
          "type": "uint256"
        },
        {
          "indexed": false,
          "internalType": "string",
          "name": "tokenURI",
          "type": "string"
        },
        {
          "indexed": false,
          "internalType": "uint256",
          "name": "price",
          "type": "uint256"
        }
      ],
      "name": "LazyMinted",
      "type": "event"
    },
    {
      "anonymous": false,
      "inputs": [
        {
          "indexed": false,
          "internalType": "uint256",
          "name": "_tokenId",
          "type": "uint256"
        }
      ],
      "name": "MetadataUpdate",
      "type": "event"
    },
    {
      "anonymous": false,
      "inputs": [
        {
          "indexed": true,
          "internalType": "address",
          "name": "previousOwner",
          "type": "address"
        },
        {
          "indexed": true,
          "internalType": "address",
          "name": "newOwner",
          "type": "address"
        }
      ],
      "name": "OwnershipTransferred",
      "type": "event"
    },
    {
      "anonymous": false,
      "inputs": [
        {
          "indexed": true,
          "internalType": "address",
          "name": "newSplitter",
          "type": "address"
        }
      ],
      "name": "PaymentSplitterUpdated",
      "type": "event"
    },
    {
      "anonymous": false,
      "inputs": [
        {
          "indexed": true,
          "internalType": "uint256",
          "name": "tokenId",
          "type": "uint256"
        },
        {
          "indexed": false,
          "internalType": "address",
          "name": "recipient",
          "type": "address"
        },
        {
          "indexed": false,
          "internalType": "uint96",
          "name": "feeNumerator",
          "type": "uint96"
        }
      ],
      "name": "RoyaltyUpdated",
      "type": "event"
    },
    {
      "anonymous": false,
      "inputs": [
        {
          "indexed": true,
          "internalType": "address",
          "name": "from",
          "type": "address"
        },
        {
          "indexed": true,
          "internalType": "address",
          "name": "to",
          "type": "address"
        },
        {
          "indexed": true,
          "internalType": "uint256",
          "name": "tokenId",
          "type": "uint256"
        }
      ],
      "name": "Transfer",
      "type": "event"
    },
    {
      "inputs": [
        {
          "internalType": "address",
          "name": "to",
          "type": "address"
        },
        {
          "internalType": "uint256",
          "name": "tokenId",
          "type": "uint256"
        }
      ],
      "name": "approve",
      "outputs": [],
      "stateMutability": "nonpayable",
      "type": "function"
    },
    {
      "inputs": [],
      "name": "authorizedSigner",
      "outputs": [
        {
          "internalType": "address",
          "name": "",
          "type": "address"
        }
      ],
      "stateMutability": "view",
      "type": "function"
    },
    {
      "inputs": [
        {
          "internalType": "address",
          "name": "owner",
          "type": "address"
        }
      ],
      "name": "balanceOf",
      "outputs": [
        {
          "internalType": "uint256",
          "name": "",
          "type": "uint256"
        }
      ],
      "stateMutability": "view",
      "type": "function"
    },
    {
      "inputs": [
        {
          "components": [
            {
              "internalType": "uint256",
              "name": "tokenId",
              "type": "uint256"
            },
            {
              "internalType": "string",
              "name": "uri",
              "type": "string"
            },
            {
              "internalType": "uint256",
              "name": "price",
              "type": "uint256"
            },
            {
              "internalType": "address",
              "name": "recipient",
              "type": "address"
            },
            {
              "internalType": "uint96",
              "name": "royaltyFee",
              "type": "uint96"
            },
            {
              "internalType": "address",
              "name": "royaltyRecipient",
              "type": "address"
            },
            {
              "internalType": "bytes",
              "name": "signature",
              "type": "bytes"
            }
          ],
          "internalType": "struct LazyMintNFT.LazyMintVoucher[]",
          "name": "vouchers",
          "type": "tuple[]"
        }
      ],
      "name": "batchLazyMint",
      "outputs": [],
      "stateMutability": "payable",
      "type": "function"
    },
    {
      "inputs": [],
      "name": "defaultRoyaltyFee",
      "outputs": [
        {
          "internalType": "uint96",
          "name": "",
          "type": "uint96"
        }
      ],
      "stateMutability": "view",
      "type": "function"
    },
    {
      "inputs": [],
      "name": "defaultRoyaltyRecipient",
      "outputs": [
        {
          "internalType": "address",
          "name": "",
          "type": "address"
        }
      ],
      "stateMutability": "view",
      "type": "function"
    },
    {
      "inputs": [],
      "name": "eip712Domain",
      "outputs": [
        {
          "internalType": "bytes1",
          "name": "fields",
          "type": "bytes1"
        },
        {
          "internalType": "string",
          "name": "name",
          "type": "string"
        },
        {
          "internalType": "string",
          "name": "version",
          "type": "string"
        },
        {
          "internalType": "uint256",
          "name": "chainId",
          "type": "uint256"
        },
        {
          "internalType": "address",
          "name": "verifyingContract",
          "type": "address"
        },
        {
          "internalType": "bytes32",
          "name": "salt",
          "type": "bytes32"
        },
        {
          "internalType": "uint256[]",
          "name": "extensions",
          "type": "uint256[]"
        }
      ],
      "stateMutability": "view",
      "type": "function"
    },
    {
      "inputs": [
        {
          "internalType": "uint256",
          "name": "tokenId",
          "type": "uint256"
        }
      ],
      "name": "getApproved",
      "outputs": [
        {
          "internalType": "address",
          "name": "",
          "type": "address"
        }
      ],
      "stateMutability": "view",
      "type": "function"
    },
    {
      "inputs": [
        {
          "internalType": "address",
          "name": "owner",
          "type": "address"
        },
        {
          "internalType": "address",
          "name": "operator",
          "type": "address"
        }
      ],
      "name": "isApprovedForAll",
      "outputs": [
        {
          "internalType": "bool",
          "name": "",
          "type": "bool"
        }
      ],
      "stateMutability": "view",
      "type": "function"
    },
    {
      "inputs": [
        {
          "components": [
            {
              "internalType": "uint256",
              "name": "tokenId",
              "type": "uint256"
            },
            {
              "internalType": "string",
              "name": "uri",
              "type": "string"
            },
            {
              "internalType": "uint256",
              "name": "price",
              "type": "uint256"
            },
            {
              "internalType": "address",
              "name": "recipient",
              "type": "address"
            },
            {
              "internalType": "uint96",
              "name": "royaltyFee",
              "type": "uint96"
            },
            {
              "internalType": "address",
              "name": "royaltyRecipient",
              "type": "address"
            },
            {
              "internalType": "bytes",
              "name": "signature",
              "type": "bytes"
            }
          ],
          "internalType": "struct LazyMintNFT.LazyMintVoucher",
          "name": "voucher",
          "type": "tuple"
        }
      ],
      "name": "lazyMint",
      "outputs": [],
      "stateMutability": "payable",
      "type": "function"
    },
    {
      "inputs": [
        {
          "internalType": "address",
          "name": "to",
          "type": "address"
        },
        {
          "internalType": "string",
          "name": "uri",
          "type": "string"
        }
      ],
      "name": "mint",
      "outputs": [],
      "stateMutability": "nonpayable",
      "type": "function"
    },
    {
      "inputs": [],
      "name": "name",
      "outputs": [
        {
          "internalType": "string",
          "name": "",
          "type": "string"
        }
      ],
      "stateMutability": "view",
      "type": "function"
    },
    {
      "inputs": [],
      "name": "nextTokenId",
      "outputs": [
        {
          "internalType": "uint256",
          "name": "",
          "type": "uint256"
        }
      ],
      "stateMutability": "view",
      "type": "function"
    },
    {
      "inputs": [],
      "name": "owner",
      "outputs": [
        {
          "internalType": "address",
          "name": "",
          "type": "address"
        }
      ],
      "stateMutability": "view",
      "type": "function"
    },
    {
      "inputs": [
        {
          "internalType": "uint256",
          "name": "tokenId",
          "type": "uint256"
        }
      ],
      "name": "ownerOf",
      "outputs": [
        {
          "internalType": "address",
          "name": "",
          "type": "address"
        }
      ],
      "stateMutability": "view",
      "type": "function"
    },
    {
      "inputs": [
        {
          "internalType": "uint256",
          "name": "index",
          "type": "uint256"
        }
      ],
      "name": "payee",
      "outputs": [
        {
          "internalType": "address",
          "name": "",
          "type": "address"
        }
      ],
      "stateMutability": "view",
      "type": "function"
    },
    {
      "inputs": [],
      "name": "paymentSplitter",
      "outputs": [
        {
          "internalType": "contract PaymentSplitter",
          "name": "",
          "type": "address"
        }
      ],
      "stateMutability": "view",
      "type": "function"
    },
    {
      "inputs": [
        {
          "internalType": "address",
          "name": "account",
          "type": "address"
        }
      ],
      "name": "releasable",
      "outputs": [
        {
          "internalType": "uint256",
          "name": "",
          "type": "uint256"
        }
      ],
      "stateMutability": "view",
      "type": "function"
    },
    {
      "inputs": [
        {
          "internalType": "address payable",
          "name": "account",
          "type": "address"
        }
      ],
      "name": "release",
      "outputs": [],
      "stateMutability": "nonpayable",
      "type": "function"
    },
    {
      "inputs": [],
      "name": "renounceOwnership",
      "outputs": [],
      "stateMutability": "nonpayable",
      "type": "function"
    },
    {
      "inputs": [
        {
          "internalType": "uint256",
          "name": "tokenId",
          "type": "uint256"
        },
        {
          "internalType": "uint256",
          "name": "salePrice",
          "type": "uint256"
        }
      ],
      "name": "royaltyInfo",
      "outputs": [
        {
          "internalType": "address",
          "name": "",
          "type": "address"
        },
        {
          "internalType": "uint256",
          "name": "",
          "type": "uint256"
        }
      ],
      "stateMutability": "view",
      "type": "function"
    },
    {
      "inputs": [
        {
          "internalType": "address",
          "name": "from",
          "type": "address"
        },
        {
          "internalType": "address",
          "name": "to",
          "type": "address"
        },
        {
          "internalType": "uint256",
          "name": "tokenId",
          "type": "uint256"
        }
      ],
      "name": "safeTransferFrom",
      "outputs": [],
      "stateMutability": "nonpayable",
      "type": "function"
    },
    {
      "inputs": [
        {
          "internalType": "address",
          "name": "from",
          "type": "address"
        },
        {
          "internalType": "address",
          "name": "to",
          "type": "address"
        },
        {
          "internalType": "uint256",
          "name": "tokenId",
          "type": "uint256"
        },
        {
          "internalType": "bytes",
          "name": "data",
          "type": "bytes"
        }
      ],
      "name": "safeTransferFrom",
      "outputs": [],
      "stateMutability": "nonpayable",
      "type": "function"
    },
    {
      "inputs": [
        {
          "internalType": "address",
          "name": "operator",
          "type": "address"
        },
        {
          "internalType": "bool",
          "name": "approved",
          "type": "bool"
        }
      ],
      "name": "setApprovalForAll",
      "outputs": [],
      "stateMutability": "nonpayable",
      "type": "function"
    },
    {
      "inputs": [
        {
          "internalType": "address",
          "name": "newSigner",
          "type": "address"
        }
      ],
      "name": "setAuthorizedSigner",
      "outputs": [],
      "stateMutability": "nonpayable",
      "type": "function"
    },
    {
      "inputs": [
        {
          "internalType": "address",
          "name": "recipient",
          "type": "address"
        },
        {
          "internalType": "uint96",
          "name": "feeNumerator",
          "type": "uint96"
        }
      ],
      "name": "setDefaultRoyalty",
      "outputs": [],
      "stateMutability": "nonpayable",
      "type": "function"
    },
    {
      "inputs": [
        {
          "internalType": "uint256",
          "name": "tokenId",
          "type": "uint256"
        },
        {
          "internalType": "address",
          "name": "recipient",
          "type": "address"
        },
        {
          "internalType": "uint96",
          "name": "feeNumerator",
          "type": "uint96"
        }
      ],
      "name": "setTokenRoyalty",
      "outputs": [],
      "stateMutability": "nonpayable",
      "type": "function"
    },
    {
      "inputs": [
        {
          "internalType": "address",
          "name": "account",
          "type": "address"
        }
      ],
      "name": "shares",
      "outputs": [
        {
          "internalType": "uint256",
          "name": "",
          "type": "uint256"
        }
      ],
      "stateMutability": "view",
      "type": "function"
    },
    {
      "inputs": [
        {
          "internalType": "bytes4",
          "name": "interfaceId",
          "type": "bytes4"
        }
      ],
      "name": "supportsInterface",
      "outputs": [
        {
          "internalType": "bool",
          "name": "",
          "type": "bool"
        }
      ],
      "stateMutability": "view",
      "type": "function"
    },
    {
      "inputs": [],
      "name": "symbol",
      "outputs": [
        {
          "internalType": "string",
          "name": "",
          "type": "string"
        }
      ],
      "stateMutability": "view",
      "type": "function"
    },
    {
      "inputs": [
        {
          "internalType": "uint256",
          "name": "",
          "type": "uint256"
        }
      ],
      "name": "tokenExists",
      "outputs": [
        {
          "internalType": "bool",
          "name": "",
          "type": "bool"
        }
      ],
      "stateMutability": "view",
      "type": "function"
    },
    {
      "inputs": [
        {
          "internalType": "uint256",
          "name": "tokenId",
          "type": "uint256"
        }
      ],
      "name": "tokenURI",
      "outputs": [
        {
          "internalType": "string",
          "name": "",
          "type": "string"
        }
      ],
      "stateMutability": "view",
      "type": "function"
    },
    {
      "inputs": [],
      "name": "totalReleased",
      "outputs": [
        {
          "internalType": "uint256",
          "name": "",
          "type": "uint256"
        }
      ],
      "stateMutability": "view",
      "type": "function"
    },
    {
      "inputs": [],
      "name": "totalShares",
      "outputs": [
        {
          "internalType": "uint256",
          "name": "",
          "type": "uint256"
        }
      ],
      "stateMutability": "view",
      "type": "function"
    },
    {
      "inputs": [
        {
          "internalType": "address",
          "name": "from",
          "type": "address"
        },
        {
          "internalType": "address",
          "name": "to",
          "type": "address"
        },
        {
          "internalType": "uint256",
          "name": "tokenId",
          "type": "uint256"
        }
      ],
      "name": "transferFrom",
      "outputs": [],
      "stateMutability": "nonpayable",
      "type": "function"
    },
    {
      "inputs": [
        {
          "internalType": "address",
          "name": "newOwner",
          "type": "address"
        }
      ],
      "name": "transferOwnership",
      "outputs": [],
      "stateMutability": "nonpayable",
      "type": "function"
    },
    {
      "inputs": [
        {
          "internalType": "address[]",
          "name": "payees",
          "type": "address[]"
        },
        {
          "internalType": "uint256[]",
          "name": "shares_",
          "type": "uint256[]"
        }
      ],
      "name": "updatePaymentSplitter",
      "outputs": [],
      "stateMutability": "nonpayable",
      "type": "function"
    },
    {
      "inputs": [
        {
          "internalType": "bytes",
          "name": "",
          "type": "bytes"
        }
      ],
      "name": "usedSignatures",
      "outputs": [
        {
          "internalType": "bool",
          "name": "",
          "type": "bool"
        }
      ],
      "stateMutability": "view",
      "type": "function"
    },
    {
      "stateMutability": "payable",
      "type": "receive"
    }
  ],
  "bytecode": "0x6101606040526001601155601280546001600160601b0319166101f41790553480156200002b57600080fd5b5060405162006c8a38038062006c8a8339810160408190526200004e91620007a4565b6040805180820190915260058152640312e302e360dc1b60208201528590818660026200007c838262000961565b5060036200008b828262000961565b505050620000a8620000a26200036b60201b60201c565b6200036f565b6001600a55620000ba82600b620003c1565b61012052620000cb81600c620003c1565b61014052815160208084019190912060e052815190820120610100524660a0526200015960e05161010051604080517f8b73c3c69bb8fe3d512ecc4cf759cc79239f7b179b0ffacaa9a75d522b39400f60208201529081019290925260608201524660808201523060a082015260009060c00160405160208183030381529060405280519060200120905090565b60805250503060c0526001600160a01b038316620001be5760405162461bcd60e51b815260206004820152601660248201527f496e76616c6964207369676e657220616464726573730000000000000000000060448201526064015b60405180910390fd5b80518251146200021b5760405162461bcd60e51b815260206004820152602160248201527f50617965657320616e6420736861726573206c656e677468206d69736d6174636044820152600d60fb1b6064820152608401620001b5565b60008251116200026e5760405162461bcd60e51b815260206004820152601c60248201527f4d7573742068617665206174206c65617374206f6e65207061796565000000006044820152606401620001b5565b62000279336200036f565b601080546001600160a01b0319166001600160a01b038516179055601280546001600160601b0316336c01000000000000000000000000021790558151620002c99060139060208501906200053e565b508051620002df906014906020840190620005a8565b508181604051620002f090620005e6565b620002fd92919062000a2d565b604051809103906000f0801580156200031a573d6000803e3d6000fd5b50600f80546001600160a01b0319166001600160a01b0392831617905560125462000360916c01000000000000000000000000820416906001600160601b0316620003fa565b505050505062000b0f565b3390565b600980546001600160a01b038381166001600160a01b0319831681179093556040519116919082907f8be0079c531659141344cd1fd0a4f28419497f9722a3daafe3b4186f6b6457e090600090a35050565b6000602083511015620003e157620003d983620004fb565b9050620003f4565b81620003ee848262000961565b5060ff90505b92915050565b6127106001600160601b03821611156200046a5760405162461bcd60e51b815260206004820152602a60248201527f455243323938313a20726f79616c7479206665652077696c6c206578636565646044820152692073616c65507269636560b01b6064820152608401620001b5565b6001600160a01b038216620004c25760405162461bcd60e51b815260206004820152601960248201527f455243323938313a20696e76616c6964207265636569766572000000000000006044820152606401620001b5565b604080518082019091526001600160a01b039092168083526001600160601b039091166020909201829052600160a01b90910217600055565b600080829050601f8151111562000529578260405163305a27a960e01b8152600401620001b5919062000ab5565b8051620005368262000aea565b179392505050565b82805482825590600052602060002090810192821562000596579160200282015b828111156200059657825182546001600160a01b0319166001600160a01b039091161782556020909201916001909101906200055f565b50620005a4929150620005f4565b5090565b82805482825590600052602060002090810192821562000596579160200282015b8281111562000596578251825591602001919060010190620005c9565b6111998062005af183390190565b5b80821115620005a45760008155600101620005f5565b634e487b7160e01b600052604160045260246000fd5b604051601f8201601f191681016001600160401b03811182821017156200064c576200064c6200060b565b604052919050565b60005b838110156200067157818101518382015260200162000657565b50506000910152565b600082601f8301126200068c57600080fd5b81516001600160401b03811115620006a857620006a86200060b565b620006bd601f8201601f191660200162000621565b818152846020838601011115620006d357600080fd5b620006e682602083016020870162000654565b949350505050565b80516001600160a01b03811681146200070657600080fd5b919050565b60006001600160401b038211156200072757620007276200060b565b5060051b60200190565b600082601f8301126200074357600080fd5b815160206200075c62000756836200070b565b62000621565b82815260059290921b840181019181810190868411156200077c57600080fd5b8286015b8481101562000799578051835291830191830162000780565b509695505050505050565b600080600080600060a08688031215620007bd57600080fd5b85516001600160401b0380821115620007d557600080fd5b620007e389838a016200067a565b9650602091508188015181811115620007fb57600080fd5b620008098a828b016200067a565b9650506200081a60408901620006ee565b94506060880151818111156200082f57600080fd5b8801601f81018a136200084157600080fd5b80516200085262000756826200070b565b81815260059190911b8201840190848101908c8311156200087257600080fd5b928501925b828410156200089b576200088b84620006ee565b8252928501929085019062000877565b60808c0151909750945050505080821115620008b657600080fd5b50620008c58882890162000731565b9150509295509295909350565b600181811c90821680620008e757607f821691505b6020821081036200090857634e487b7160e01b600052602260045260246000fd5b50919050565b601f8211156200095c57600081815260208120601f850160051c81016020861015620009375750805b601f850160051c820191505b81811015620009585782815560010162000943565b5050505b505050565b81516001600160401b038111156200097d576200097d6200060b565b62000995816200098e8454620008d2565b846200090e565b602080601f831160018114620009cd5760008415620009b45750858301515b600019600386901b1c1916600185901b17855562000958565b600085815260208120601f198616915b82811015620009fe57888601518255948401946001909101908401620009dd565b508582101562000a1d5787850151600019600388901b60f8161c191681555b5050505050600190811b01905550565b604080825283519082018190526000906020906060840190828701845b8281101562000a715781516001600160a01b03168452928401929084019060010162000a4a565b5050508381038285015284518082528583019183019060005b8181101562000aa85783518352928401929184019160010162000a8a565b5090979650505050505050565b602081526000825180602084015262000ad681604085016020870162000654565b601f01601f19169190910160400192915050565b80516020808301519190811015620009085760001960209190910360031b1b16919050565b60805160a05160c05160e051610100516101205161014051614f8762000b6a60003960006113d9015260006113ac015260006129720152600061294a015260006128a2015260006128cd015260006128f80152614f876000f3fe608060405260043610620002565760003560e01c80638b83209b116200013b578063ce7c2ac211620000b9578063e949580e1162000078578063e949580e14620007dd578063e985e9c5146200081c578063ed4a6b0c1462000841578063f1d3fd661462000863578063f2fde38b146200088857600080fd5b8063ce7c2ac2146200071b578063d0def5211462000740578063d279b0ca1462000765578063d7a8602d146200078a578063e33b7de314620007c557600080fd5b8063a3f8eace1162000106578063a3f8eace1462000673578063aa2a628b1462000698578063b88d4fde14620006af578063c771909c14620006d4578063c87b56dd14620006f657600080fd5b80638b83209b14620005f15780638da5cb5b146200061657806395d89b411462000636578063a22cb465146200064e57600080fd5b80633a98ef3911620001d557806370a08231116200019457806370a082311462000558578063715018a6146200057d57806371c66160146200059557806375794a3c14620005ac57806384b0196e14620005c457600080fd5b80633a98ef39146200049957806342842e0e14620004c0578063535ba42f14620004e55780635944c753146200050e5780636352211e146200053357600080fd5b8063081812fc1162000222578063081812fc14620003a7578063095ea7b314620003e557806319165587146200040a57806323b872dd146200042f5780632a55205a146200045457600080fd5b8062923f9e14620002ed57806301ffc9a7146200033657806304634d8d146200035b57806306fdde03146200038057600080fd5b36620002e8573415620002e657600f546040516000916001600160a01b03169034908381818185875af1925050503d8060008114620002b2576040519150601f19603f3d011682016040523d82523d6000602084013e620002b7565b606091505b5050905080620002e45760405162461bcd60e51b8152600401620002db90620030e6565b60405180910390fd5b505b005b600080fd5b348015620002fa57600080fd5b50620003216200030c3660046200311d565b600d6020526000908152604090205460ff1681565b60405190151581526020015b60405180910390f35b3480156200034357600080fd5b5062000321620003553660046200314e565b620008ad565b3480156200036857600080fd5b50620002e66200037a366004620031a1565b620008c0565b3480156200038d57600080fd5b506200039862000907565b6040516200032d91906200322f565b348015620003b457600080fd5b50620003cc620003c63660046200311d565b620009a1565b6040516001600160a01b0390911681526020016200032d565b348015620003f257600080fd5b50620002e66200040436600462003244565b620009ca565b3480156200041757600080fd5b50620002e66200042936600462003273565b62000aea565b3480156200043c57600080fd5b50620002e66200044e36600462003293565b62000b4e565b3480156200046157600080fd5b506200047962000473366004620032d9565b62000b86565b604080516001600160a01b0390931683526020830191909152016200032d565b348015620004a657600080fd5b50620004b162000c39565b6040519081526020016200032d565b348015620004cd57600080fd5b50620002e6620004df36600462003293565b62000caf565b348015620004f257600080fd5b50601254620003cc90600160601b90046001600160a01b031681565b3480156200051b57600080fd5b50620002e66200052d366004620032fc565b62000ccc565b3480156200054057600080fd5b50620003cc620005523660046200311d565b62000d8b565b3480156200056557600080fd5b50620004b16200057736600462003273565b62000ded565b3480156200058a57600080fd5b50620002e662000e75565b620002e6620005a63660046200333f565b62000e8d565b348015620005b957600080fd5b50620004b160115481565b348015620005d157600080fd5b50620005dc6200139d565b6040516200032d9796959493929190620033ba565b348015620005fe57600080fd5b50620003cc620006103660046200311d565b6200142a565b3480156200062357600080fd5b506009546001600160a01b0316620003cc565b3480156200064357600080fd5b50620003986200149b565b3480156200065b57600080fd5b50620002e66200066d36600462003430565b620014ac565b3480156200068057600080fd5b50620004b16200069236600462003273565b620014b9565b620002e6620006a936600462003472565b6200152c565b348015620006bc57600080fd5b50620002e6620006ce366004620035b7565b62001996565b348015620006e157600080fd5b50601054620003cc906001600160a01b031681565b3480156200070357600080fd5b5062000398620007153660046200311d565b620019d5565b3480156200072857600080fd5b50620004b16200073a36600462003273565b620019e2565b3480156200074d57600080fd5b50620002e66200075f3660046200362b565b62001a16565b3480156200077257600080fd5b50620002e66200078436600462003273565b62001ab6565b3480156200079757600080fd5b50601254620007ac906001600160601b031681565b6040516001600160601b0390911681526020016200032d565b348015620007d257600080fd5b50620004b162001b33565b348015620007ea57600080fd5b5062000321620007fc36600462003696565b8051602081830181018051600e8252928201919093012091525460ff1681565b3480156200082957600080fd5b50620003216200083b366004620036cf565b62001b7e565b3480156200084e57600080fd5b50600f54620003cc906001600160a01b031681565b3480156200087057600080fd5b50620002e6620008823660046200379c565b62001bac565b3480156200089557600080fd5b50620002e6620008a736600462003273565b62001d18565b6000620008ba8262001d94565b92915050565b620008ca62001da1565b6001600160601b0381166001600160a01b038316600160601b026bffffffffffffffffffffffff19161760125562000903828262001dfd565b5050565b606060028054620009189062003862565b80601f0160208091040260200160405190810160405280929190818152602001828054620009469062003862565b8015620009975780601f106200096b5761010080835404028352916020019162000997565b820191906000526020600020905b8154815290600101906020018083116200097957829003601f168201915b5050505050905090565b6000620009ae8262001ebc565b506000908152600660205260409020546001600160a01b031690565b6000620009d78262000d8b565b9050806001600160a01b0316836001600160a01b03160362000a465760405162461bcd60e51b815260206004820152602160248201527f4552433732313a20617070726f76616c20746f2063757272656e74206f776e656044820152603960f91b6064820152608401620002db565b336001600160a01b038216148062000a65575062000a65813362001b7e565b62000ad95760405162461bcd60e51b815260206004820152603d60248201527f4552433732313a20617070726f76652063616c6c6572206973206e6f7420746f60448201527f6b656e206f776e6572206f7220617070726f76656420666f7220616c6c0000006064820152608401620002db565b62000ae5838362001f1d565b505050565b600f54604051631916558760e01b81526001600160a01b03838116600483015290911690631916558790602401600060405180830381600087803b15801562000b3257600080fd5b505af115801562000b47573d6000803e3d6000fd5b5050505050565b62000b5a338262001f8d565b62000b795760405162461bcd60e51b8152600401620002db906200389e565b62000ae583838362001ff4565b60008281526001602090815260408083208151808301909252546001600160a01b038116808352600160a01b9091046001600160601b031692820192909252829162000bfc5750604080518082019091526000546001600160a01b0381168252600160a01b90046001600160601b031660208201525b60208101516000906127109062000c1d906001600160601b03168762003901565b62000c2991906200391b565b91519350909150505b9250929050565b600f5460408051633a98ef3960e01b815290516000926001600160a01b031691633a98ef399160048083019260209291908290030181865afa15801562000c84573d6000803e3d6000fd5b505050506040513d601f19601f8201168201806040525081019062000caa91906200393e565b905090565b62000ae58383836040518060200160405280600081525062001996565b62000cd662001da1565b6000838152600d602052604090205460ff1662000d2d5760405162461bcd60e51b8152602060048201526014602482015273151bdad95b88191bd95cc81b9bdd08195e1a5cdd60621b6044820152606401620002db565b62000d3a83838362002164565b604080516001600160a01b03841681526001600160601b038316602082015284917f19dc52c4a51cd356464f1965b7872ac6388fb669cee13a05e1ded99b903127a3910160405180910390a2505050565b6000818152600460205260408120546001600160a01b031680620008ba5760405162461bcd60e51b8152602060048201526018602482015277115490cdcc8c4e881a5b9d985b1a59081d1bdad95b88125160421b6044820152606401620002db565b60006001600160a01b03821662000e595760405162461bcd60e51b815260206004820152602960248201527f4552433732313a2061646472657373207a65726f206973206e6f7420612076616044820152683634b21037bbb732b960b91b6064820152608401620002db565b506001600160a01b031660009081526005602052604090205490565b62000e7f62001da1565b62000e8b600062002234565b565b62000e9762002286565b806040013534101562000ee45760405162461bcd60e51b8152602060048201526014602482015273125b9cdd59999a58da595b9d081c185e5b595b9d60621b6044820152606401620002db565b600e62000ef560c083018362003958565b60405162000f05929190620039a2565b9081526040519081900360200190205460ff161562000f605760405162461bcd60e51b815260206004820152601660248201527514da59db985d1d5c9948185b1c9958591e481d5cd95960521b6044820152606401620002db565b80356000908152600d602052604090205460ff161562000fba5760405162461bcd60e51b8152602060048201526014602482015273546f6b656e20616c72656164792065786973747360601b6044820152606401620002db565b6000620010b07fa589168f206af771234964fa259d19d5044da08d6b35fdb7548344f304b98eb0833562000ff2602086018662003958565b60405162001002929190620039a2565b6040518091039020856040013586606001602081019062001024919062003273565b6200103660a0890160808a01620039b2565b6200104860c08a0160a08b0162003273565b604080516020810198909852870195909552606086019390935260808501919091526001600160a01b0390811660a08501526001600160601b0390911660c08401521660e08201526101000160405160208183030381529060405280519060200120620022e1565b9050600062001105620010c760c085018562003958565b8080601f0160208091040260200160405190810160405280939291908181526020018383808284376000920191909152508693925050620023119050565b6010549091506001600160a01b038083169116146200115b5760405162461bcd60e51b8152602060048201526011602482015270496e76616c6964207369676e617475726560781b6044820152606401620002db565b6001600e6200116e60c086018662003958565b6040516200117e929190620039a2565b90815260408051918290036020908101909220805493151560ff1994851617905585356000908152600d909252902080549091166001179055620011d5620011cd608085016060860162003273565b843562002339565b620012258335620011ea602086018662003958565b8080601f016020809104026020016040519081016040528093929190818152602001838380828437600092019190915250620024ca92505050565b60006200123960c0850160a0860162003273565b6001600160a01b0316141580156200126b575060006200126060a0850160808601620039b2565b6001600160601b0316115b15620012a157620012a183356200128960c0860160a0870162003273565b6200129b60a0870160808801620039b2565b62002164565b34156200132257600f546040516000916001600160a01b03169034908381818185875af1925050503d8060008114620012f7576040519150601f19603f3d011682016040523d82523d6000602084013e620012fc565b606091505b5050905080620013205760405162461bcd60e51b8152600401620002db90620030e6565b505b823562001336608085016060860162003273565b6001600160a01b03167f77e80b0e96a3190346f6606e8f901ab620948f4430e881fbc05dbe793f10d14d6200136f602087018762003958565b87604001356040516200138593929190620039d0565b60405180910390a350506200139a6001600a55565b50565b600060608082808083620013d37f0000000000000000000000000000000000000000000000000000000000000000600b62002599565b620014007f0000000000000000000000000000000000000000000000000000000000000000600c62002599565b60408051600080825260208201909252600f60f81b9b939a50919850469750309650945092509050565b600f54604051638b83209b60e01b8152600481018390526000916001600160a01b031690638b83209b90602401602060405180830381865afa15801562001475573d6000803e3d6000fd5b505050506040513d601f19601f82011682018060405250810190620008ba919062003a09565b606060038054620009189062003862565b6200090333838362002651565b600f546040516351fc756760e11b81526001600160a01b038381166004830152600092169063a3f8eace906024015b602060405180830381865afa15801562001506573d6000803e3d6000fd5b505050506040513d601f19601f82011682018060405250810190620008ba91906200393e565b6200153662002286565b6000805b82811015620015935783838281811062001558576200155862003a29565b90506020028101906200156c919062003a3f565b6200157c90604001358362003a60565b9150806200158a8162003a76565b9150506200153a565b5080341015620015e65760405162461bcd60e51b815260206004820152601e60248201527f496e73756666696369656e74207061796d656e7420666f7220626174636800006044820152606401620002db565b60005b8281101562001908573684848381811062001608576200160862003a29565b90506020028101906200161c919062003a3f565b9050600e6200162f60c083018362003958565b6040516200163f929190620039a2565b9081526040519081900360200190205460ff16156200169a5760405162461bcd60e51b815260206004820152601660248201527514da59db985d1d5c9948185b1c9958591e481d5cd95960521b6044820152606401620002db565b80356000908152600d602052604090205460ff1615620016f45760405162461bcd60e51b8152602060048201526014602482015273546f6b656e20616c72656164792065786973747360601b6044820152606401620002db565b60006200172c7fa589168f206af771234964fa259d19d5044da08d6b35fdb7548344f304b98eb0833562000ff2602086018662003958565b9050600062001743620010c760c085018562003958565b6010549091506001600160a01b03808316911614620017995760405162461bcd60e51b8152602060048201526011602482015270496e76616c6964207369676e617475726560781b6044820152606401620002db565b6001600e620017ac60c086018662003958565b604051620017bc929190620039a2565b90815260408051918290036020908101909220805493151560ff1994851617905585356000908152600d9092529020805490911660011790556200180b620011cd608085016060860162003273565b620018208335620011ea602086018662003958565b60006200183460c0850160a0860162003273565b6001600160a01b03161415801562001866575060006200185b60a0850160808601620039b2565b6001600160601b0316115b1562001884576200188483356200128960c0860160a0870162003273565b823562001898608085016060860162003273565b6001600160a01b03167f77e80b0e96a3190346f6606e8f901ab620948f4430e881fbc05dbe793f10d14d620018d1602087018762003958565b8760400135604051620018e793929190620039d0565b60405180910390a35050508080620018ff9062003a76565b915050620015e9565b5034156200198a57600f546040516000916001600160a01b03169034908381818185875af1925050503d80600081146200195f576040519150601f19603f3d011682016040523d82523d6000602084013e62001964565b606091505b5050905080620019885760405162461bcd60e51b8152600401620002db90620030e6565b505b50620009036001600a55565b620019a2338362001f8d565b620019c15760405162461bcd60e51b8152600401620002db906200389e565b620019cf848484846200271a565b50505050565b6060620008ba8262002754565b600f5460405163673e156160e11b81526001600160a01b038381166004830152600092169063ce7c2ac290602401620014e8565b62001a2062001da1565b60118054908190600062001a348362003a76565b90915550506000818152600d60205260409020805460ff1916600117905562001a5e838262002339565b62001a6a8183620024ca565b80836001600160a01b03167f77e80b0e96a3190346f6606e8f901ab620948f4430e881fbc05dbe793f10d14d84600060405162001aa992919062003a92565b60405180910390a3505050565b62001ac062001da1565b6001600160a01b03811662001b115760405162461bcd60e51b8152602060048201526016602482015275496e76616c6964207369676e6572206164647265737360501b6044820152606401620002db565b601080546001600160a01b0319166001600160a01b0392909216919091179055565b600f546040805163e33b7de360e01b815290516000926001600160a01b03169163e33b7de39160048083019260209291908290030181865afa15801562000c84573d6000803e3d6000fd5b6001600160a01b03918216600090815260076020908152604080832093909416825291909152205460ff1690565b62001bb662001da1565b805182511462001c135760405162461bcd60e51b815260206004820152602160248201527f50617965657320616e6420736861726573206c656e677468206d69736d6174636044820152600d60fb1b6064820152608401620002db565b600082511162001c665760405162461bcd60e51b815260206004820152601c60248201527f4d7573742068617665206174206c65617374206f6e65207061796565000000006044820152606401620002db565b815162001c7b90601390602085019062003019565b50805162001c9190601490602084019062003083565b50818160405162001ca290620030c1565b62001caf92919062003ab6565b604051809103906000f08015801562001ccc573d6000803e3d6000fd5b50600f80546001600160a01b0319166001600160a01b039290921691821790556040517e30f8310a32ba02e4c20afe9f36e90a0c3f695eb0890a82c94801a72a30c37990600090a25050565b62001d2262001da1565b6001600160a01b03811662001d895760405162461bcd60e51b815260206004820152602660248201527f4f776e61626c653a206e6577206f776e657220697320746865207a65726f206160448201526564647265737360d01b6064820152608401620002db565b6200139a8162002234565b6000620008ba826200286d565b6009546001600160a01b0316331462000e8b5760405162461bcd60e51b815260206004820181905260248201527f4f776e61626c653a2063616c6c6572206973206e6f7420746865206f776e65726044820152606401620002db565b6127106001600160601b038216111562001e2b5760405162461bcd60e51b8152600401620002db9062003b1a565b6001600160a01b03821662001e835760405162461bcd60e51b815260206004820152601960248201527f455243323938313a20696e76616c6964207265636569766572000000000000006044820152606401620002db565b604080518082019091526001600160a01b039092168083526001600160601b039091166020909201829052600160a01b90910217600055565b6000818152600460205260409020546001600160a01b03166200139a5760405162461bcd60e51b8152602060048201526018602482015277115490cdcc8c4e881a5b9d985b1a59081d1bdad95b88125160421b6044820152606401620002db565b600081815260066020526040902080546001600160a01b0319166001600160a01b038416908117909155819062001f548262000d8b565b6001600160a01b03167f8c5be1e5ebec7d5bd14f71427d1e84f3dd0314c0f7b2291e5b200ac8c7c3b92560405160405180910390a45050565b60008062001f9b8362000d8b565b9050806001600160a01b0316846001600160a01b0316148062001fc5575062001fc5818562001b7e565b8062001fec5750836001600160a01b031662001fe184620009a1565b6001600160a01b0316145b949350505050565b826001600160a01b0316620020098262000d8b565b6001600160a01b031614620020325760405162461bcd60e51b8152600401620002db9062003b64565b6001600160a01b038216620020965760405162461bcd60e51b8152602060048201526024808201527f4552433732313a207472616e7366657220746f20746865207a65726f206164646044820152637265737360e01b6064820152608401620002db565b826001600160a01b0316620020ab8262000d8b565b6001600160a01b031614620020d45760405162461bcd60e51b8152600401620002db9062003b64565b600081815260066020908152604080832080546001600160a01b03199081169091556001600160a01b0387811680865260058552838620805460001901905590871680865283862080546001019055868652600490945282852080549092168417909155905184937fddf252ad1be2c89b69c2b068fc378daa952ba7f163c4a11628f55a4df523b3ef91a4505050565b6127106001600160601b0382161115620021925760405162461bcd60e51b8152600401620002db9062003b1a565b6001600160a01b038216620021ea5760405162461bcd60e51b815260206004820152601b60248201527f455243323938313a20496e76616c696420706172616d657465727300000000006044820152606401620002db565b6040805180820182526001600160a01b0393841681526001600160601b0392831660208083019182526000968752600190529190942093519051909116600160a01b029116179055565b600980546001600160a01b038381166001600160a01b0319831681179093556040519116919082907f8be0079c531659141344cd1fd0a4f28419497f9722a3daafe3b4186f6b6457e090600090a35050565b6002600a5403620022da5760405162461bcd60e51b815260206004820152601f60248201527f5265656e7472616e637947756172643a207265656e7472616e742063616c6c006044820152606401620002db565b6002600a55565b6000620008ba620022f162002895565b8360405161190160f01b8152600281019290925260228201526042902090565b6000806000620023228585620029c3565b91509150620023318162002a0a565b509392505050565b6001600160a01b038216620023915760405162461bcd60e51b815260206004820181905260248201527f4552433732313a206d696e7420746f20746865207a65726f20616464726573736044820152606401620002db565b6000818152600460205260409020546001600160a01b031615620023f85760405162461bcd60e51b815260206004820152601c60248201527f4552433732313a20746f6b656e20616c7265616479206d696e746564000000006044820152606401620002db565b6000818152600460205260409020546001600160a01b0316156200245f5760405162461bcd60e51b815260206004820152601c60248201527f4552433732313a20746f6b656e20616c7265616479206d696e746564000000006044820152606401620002db565b6001600160a01b038216600081815260056020908152604080832080546001019055848352600490915280822080546001600160a01b0319168417905551839291907fddf252ad1be2c89b69c2b068fc378daa952ba7f163c4a11628f55a4df523b3ef908290a45050565b6000828152600460205260409020546001600160a01b0316620025475760405162461bcd60e51b815260206004820152602e60248201527f45524337323155524953746f726167653a2055524920736574206f66206e6f6e60448201526d32bc34b9ba32b73a103a37b5b2b760911b6064820152608401620002db565b600082815260086020526040902062002561828262003bfb565b506040518281527ff8e1a15aba9398e019f0b49df1a4fde98ee17ae345cb5f6b5e2c27f5033e8ce79060200160405180910390a15050565b606060ff8314620025b757620025af8362002b67565b9050620008ba565b818054620025c59062003862565b80601f0160208091040260200160405190810160405280929190818152602001828054620025f39062003862565b8015620026445780601f10620026185761010080835404028352916020019162002644565b820191906000526020600020905b8154815290600101906020018083116200262657829003601f168201915b50505050509050620008ba565b816001600160a01b0316836001600160a01b031603620026b45760405162461bcd60e51b815260206004820152601960248201527f4552433732313a20617070726f766520746f2063616c6c6572000000000000006044820152606401620002db565b6001600160a01b03838116600081815260076020908152604080832094871680845294825291829020805460ff191686151590811790915591519182527f17307eab39ab6107e8899845ad3d59bd9653f200f220920489ca2b5937696c31910162001aa9565b6200272784848462001ff4565b620027358484848462002ba8565b620019cf5760405162461bcd60e51b8152600401620002db9062003cc8565b6060620027618262001ebc565b600082815260086020526040812080546200277c9062003862565b80601f0160208091040260200160405190810160405280929190818152602001828054620027aa9062003862565b8015620027fb5780601f10620027cf57610100808354040283529160200191620027fb565b820191906000526020600020905b815481529060010190602001808311620027dd57829003601f168201915b5050505050905060006200281a60408051602081019091526000815290565b905080516000036200282d575092915050565b815115620028625780826040516020016200284a92919062003d1a565b60405160208183030381529060405292505050919050565b62001fec8462002cb6565b60006001600160e01b03198216632483248360e11b1480620008ba5750620008ba8262002d33565b6000306001600160a01b037f000000000000000000000000000000000000000000000000000000000000000016148015620028ef57507f000000000000000000000000000000000000000000000000000000000000000046145b156200291a57507f000000000000000000000000000000000000000000000000000000000000000090565b62000caa604080517f8b73c3c69bb8fe3d512ecc4cf759cc79239f7b179b0ffacaa9a75d522b39400f60208201527f0000000000000000000000000000000000000000000000000000000000000000918101919091527f000000000000000000000000000000000000000000000000000000000000000060608201524660808201523060a082015260009060c00160405160208183030381529060405280519060200120905090565b6000808251604103620029fd5760208301516040840151606085015160001a620029f08782858562002d77565b9450945050505062000c32565b5060009050600262000c32565b600081600481111562002a215762002a2162003d4d565b0362002a2a5750565b600181600481111562002a415762002a4162003d4d565b0362002a905760405162461bcd60e51b815260206004820152601860248201527f45434453413a20696e76616c6964207369676e617475726500000000000000006044820152606401620002db565b600281600481111562002aa75762002aa762003d4d565b0362002af65760405162461bcd60e51b815260206004820152601f60248201527f45434453413a20696e76616c6964207369676e6174757265206c656e677468006044820152606401620002db565b600381600481111562002b0d5762002b0d62003d4d565b036200139a5760405162461bcd60e51b815260206004820152602260248201527f45434453413a20696e76616c6964207369676e6174757265202773272076616c604482015261756560f01b6064820152608401620002db565b6060600062002b768362002e40565b604080516020808252818301909252919250600091906020820181803683375050509182525060208101929092525090565b60006001600160a01b0384163b1562002cab57604051630a85bd0160e11b81526001600160a01b0385169063150b7a029062002bef90339089908890889060040162003d63565b6020604051808303816000875af192505050801562002c2d575060408051601f3d908101601f1916820190925262002c2a9181019062003d98565b60015b62002c90573d80801562002c5e576040519150601f19603f3d011682016040523d82523d6000602084013e62002c63565b606091505b50805160000362002c885760405162461bcd60e51b8152600401620002db9062003cc8565b805181602001fd5b6001600160e01b031916630a85bd0160e11b14905062001fec565b506001949350505050565b606062002cc38262001ebc565b600062002cdb60408051602081019091526000815290565b9050600081511162002cfd576040518060200160405280600081525062002d2c565b8062002d098462002e69565b60405160200162002d1c92919062003d1a565b6040516020818303038152906040525b9392505050565b60006001600160e01b031982166380ac58cd60e01b148062002d6557506001600160e01b03198216635b5e139f60e01b145b80620008ba5750620008ba8262002f03565b6000807f7fffffffffffffffffffffffffffffff5d576e7357a4501ddfe92f46681b20a083111562002db0575060009050600362002e37565b6040805160008082526020820180845289905260ff881692820192909252606081018690526080810185905260019060a0016020604051602081039080840390855afa15801562002e05573d6000803e3d6000fd5b5050604051601f1901519150506001600160a01b03811662002e305760006001925092505062002e37565b9150600090505b94509492505050565b600060ff8216601f811115620008ba57604051632cd44ac360e21b815260040160405180910390fd5b6060600062002e788362002f3a565b600101905060008167ffffffffffffffff81111562002e9b5762002e9b620034ec565b6040519080825280601f01601f19166020018201604052801562002ec6576020820181803683370190505b5090508181016020015b600019016f181899199a1a9b1b9c1cb0b131b232b360811b600a86061a8153600a850494508462002ed057509392505050565b60006001600160e01b0319821663152a902d60e11b1480620008ba57506301ffc9a760e01b6001600160e01b0319831614620008ba565b60008072184f03e93ff9f4daa797ed6e38ed64bf6a1f0160401b831062002f7a5772184f03e93ff9f4daa797ed6e38ed64bf6a1f0160401b830492506040015b6d04ee2d6d415b85acef8100000000831062002fa7576d04ee2d6d415b85acef8100000000830492506020015b662386f26fc10000831062002fc657662386f26fc10000830492506010015b6305f5e100831062002fdf576305f5e100830492506008015b612710831062002ff457612710830492506004015b6064831062003007576064830492506002015b600a8310620008ba5760010192915050565b82805482825590600052602060002090810192821562003071579160200282015b828111156200307157825182546001600160a01b0319166001600160a01b039091161782556020909201916001909101906200303a565b506200307f929150620030cf565b5090565b82805482825590600052602060002090810192821562003071579160200282015b8281111562003071578251825591602001919060010190620030a4565b6111998062003db983390190565b5b808211156200307f5760008155600101620030d0565b60208082526017908201527f5061796d656e74207472616e73666572206661696c6564000000000000000000604082015260600190565b6000602082840312156200313057600080fd5b5035919050565b6001600160e01b0319811681146200139a57600080fd5b6000602082840312156200316157600080fd5b813562002d2c8162003137565b6001600160a01b03811681146200139a57600080fd5b80356001600160601b03811681146200319c57600080fd5b919050565b60008060408385031215620031b557600080fd5b8235620031c2816200316e565b9150620031d26020840162003184565b90509250929050565b60005b83811015620031f8578181015183820152602001620031de565b50506000910152565b600081518084526200321b816020860160208601620031db565b601f01601f19169290920160200192915050565b60208152600062002d2c602083018462003201565b600080604083850312156200325857600080fd5b823562003265816200316e565b946020939093013593505050565b6000602082840312156200328657600080fd5b813562002d2c816200316e565b600080600060608486031215620032a957600080fd5b8335620032b6816200316e565b92506020840135620032c8816200316e565b929592945050506040919091013590565b60008060408385031215620032ed57600080fd5b50508035926020909101359150565b6000806000606084860312156200331257600080fd5b83359250602084013562003326816200316e565b9150620033366040850162003184565b90509250925092565b6000602082840312156200335257600080fd5b813567ffffffffffffffff8111156200336a57600080fd5b820160e0818503121562002d2c57600080fd5b600081518084526020808501945080840160005b83811015620033af5781518752958201959082019060010162003391565b509495945050505050565b60ff60f81b8816815260e060208201526000620033db60e083018962003201565b8281036040840152620033ef818962003201565b606084018890526001600160a01b038716608085015260a0840186905283810360c085015290506200342281856200337d565b9a9950505050505050505050565b600080604083850312156200344457600080fd5b823562003451816200316e565b9150602083013580151581146200346757600080fd5b809150509250929050565b600080602083850312156200348657600080fd5b823567ffffffffffffffff808211156200349f57600080fd5b818501915085601f830112620034b457600080fd5b813581811115620034c457600080fd5b8660208260051b8501011115620034da57600080fd5b60209290920196919550909350505050565b634e487b7160e01b600052604160045260246000fd5b604051601f8201601f1916810167ffffffffffffffff811182821017156200352e576200352e620034ec565b604052919050565b600067ffffffffffffffff831115620035535762003553620034ec565b62003568601f8401601f191660200162003502565b90508281528383830111156200357d57600080fd5b828260208301376000602084830101529392505050565b600082601f830112620035a657600080fd5b62002d2c8383356020850162003536565b60008060008060808587031215620035ce57600080fd5b8435620035db816200316e565b93506020850135620035ed816200316e565b925060408501359150606085013567ffffffffffffffff8111156200361157600080fd5b6200361f8782880162003594565b91505092959194509250565b600080604083850312156200363f57600080fd5b82356200364c816200316e565b9150602083013567ffffffffffffffff8111156200366957600080fd5b8301601f810185136200367b57600080fd5b6200368c8582356020840162003536565b9150509250929050565b600060208284031215620036a957600080fd5b813567ffffffffffffffff811115620036c157600080fd5b62001fec8482850162003594565b60008060408385031215620036e357600080fd5b8235620036f0816200316e565b9150602083013562003467816200316e565b600067ffffffffffffffff8211156200371f576200371f620034ec565b5060051b60200190565b600082601f8301126200373b57600080fd5b81356020620037546200374e8362003702565b62003502565b82815260059290921b840181019181810190868411156200377457600080fd5b8286015b8481101562003791578035835291830191830162003778565b509695505050505050565b60008060408385031215620037b057600080fd5b823567ffffffffffffffff80821115620037c957600080fd5b818501915085601f830112620037de57600080fd5b81356020620037f16200374e8362003702565b82815260059290921b840181019181810190898411156200381157600080fd5b948201945b838610156200383c5785356200382c816200316e565b8252948201949082019062003816565b965050860135925050808211156200385357600080fd5b506200368c8582860162003729565b600181811c908216806200387757607f821691505b6020821081036200389857634e487b7160e01b600052602260045260246000fd5b50919050565b6020808252602d908201527f4552433732313a2063616c6c6572206973206e6f7420746f6b656e206f776e6560408201526c1c881bdc88185c1c1c9bdd9959609a1b606082015260800190565b634e487b7160e01b600052601160045260246000fd5b8082028115828204841417620008ba57620008ba620038eb565b6000826200393957634e487b7160e01b600052601260045260246000fd5b500490565b6000602082840312156200395157600080fd5b5051919050565b6000808335601e198436030181126200397057600080fd5b83018035915067ffffffffffffffff8211156200398c57600080fd5b60200191503681900382131562000c3257600080fd5b8183823760009101908152919050565b600060208284031215620039c557600080fd5b62002d2c8262003184565b604081528260408201528284606083013760006060848301015260006060601f19601f8601168301019050826020830152949350505050565b60006020828403121562003a1c57600080fd5b815162002d2c816200316e565b634e487b7160e01b600052603260045260246000fd5b6000823560de1983360301811262003a5657600080fd5b9190910192915050565b80820180821115620008ba57620008ba620038eb565b60006001820162003a8b5762003a8b620038eb565b5060010190565b60408152600062003aa7604083018562003201565b90508260208301529392505050565b604080825283519082018190526000906020906060840190828701845b8281101562003afa5781516001600160a01b03168452928401929084019060010162003ad3565b5050508381038285015262003b1081866200337d565b9695505050505050565b6020808252602a908201527f455243323938313a20726f79616c7479206665652077696c6c206578636565646040820152692073616c65507269636560b01b606082015260800190565b60208082526025908201527f4552433732313a207472616e736665722066726f6d20696e636f72726563742060408201526437bbb732b960d91b606082015260800190565b601f82111562000ae557600081815260208120601f850160051c8101602086101562003bd25750805b601f850160051c820191505b8181101562003bf35782815560010162003bde565b505050505050565b815167ffffffffffffffff81111562003c185762003c18620034ec565b62003c308162003c29845462003862565b8462003ba9565b602080601f83116001811462003c68576000841562003c4f5750858301515b600019600386901b1c1916600185901b17855562003bf3565b600085815260208120601f198616915b8281101562003c995788860151825594840194600190910190840162003c78565b508582101562003cb85787850151600019600388901b60f8161c191681555b5050505050600190811b01905550565b60208082526032908201527f4552433732313a207472616e7366657220746f206e6f6e20455243373231526560408201527131b2b4bb32b91034b6b83632b6b2b73a32b960711b606082015260800190565b6000835162003d2e818460208801620031db565b83519083019062003d44818360208801620031db565b01949350505050565b634e487b7160e01b600052602160045260246000fd5b6001600160a01b038581168252841660208201526040810183905260806060820181905260009062003b109083018462003201565b60006020828403121562003dab57600080fd5b815162002d2c816200313756fe6080604052604051620011993803806200119983398101604081905262000026916200042e565b8051825114620000985760405162461bcd60e51b815260206004820152603260248201527f5061796d656e7453706c69747465723a2070617965657320616e6420736861726044820152710cae640d8cadccee8d040dad2e6dac2e8c6d60731b60648201526084015b60405180910390fd5b6000825111620000eb5760405162461bcd60e51b815260206004820152601a60248201527f5061796d656e7453706c69747465723a206e6f2070617965657300000000000060448201526064016200008f565b60005b82518110156200015757620001428382815181106200011157620001116200050c565b60200260200101518383815181106200012e576200012e6200050c565b60200260200101516200016060201b60201c565b806200014e8162000538565b915050620000ee565b50505062000570565b6001600160a01b038216620001cd5760405162461bcd60e51b815260206004820152602c60248201527f5061796d656e7453706c69747465723a206163636f756e74206973207468652060448201526b7a65726f206164647265737360a01b60648201526084016200008f565b600081116200021f5760405162461bcd60e51b815260206004820152601d60248201527f5061796d656e7453706c69747465723a2073686172657320617265203000000060448201526064016200008f565b6001600160a01b038216600090815260026020526040902054156200029b5760405162461bcd60e51b815260206004820152602b60248201527f5061796d656e7453706c69747465723a206163636f756e7420616c726561647960448201526a206861732073686172657360a81b60648201526084016200008f565b60048054600181019091557f8a35acfbc15ff81a39ae7d344fd709f28e8600b4aa8c65c6b64bfe7fe36bd19b0180546001600160a01b0319166001600160a01b0384169081179091556000908152600260205260408120829055546200030390829062000554565b600055604080516001600160a01b0384168152602081018390527f40c340f65e17194d14ddddb073d3c9f888e3cb52b5aae0c6c7706b4fbc905fac910160405180910390a15050565b634e487b7160e01b600052604160045260246000fd5b604051601f8201601f191681016001600160401b03811182821017156200038d576200038d6200034c565b604052919050565b60006001600160401b03821115620003b157620003b16200034c565b5060051b60200190565b600082601f830112620003cd57600080fd5b81516020620003e6620003e08362000395565b62000362565b82815260059290921b840181019181810190868411156200040657600080fd5b8286015b848110156200042357805183529183019183016200040a565b509695505050505050565b600080604083850312156200044257600080fd5b82516001600160401b03808211156200045a57600080fd5b818501915085601f8301126200046f57600080fd5b8151602062000482620003e08362000395565b82815260059290921b84018101918181019089841115620004a257600080fd5b948201945b83861015620004d95785516001600160a01b0381168114620004c95760008081fd5b82529482019490820190620004a7565b91880151919650909350505080821115620004f357600080fd5b506200050285828601620003bb565b9150509250929050565b634e487b7160e01b600052603260045260246000fd5b634e487b7160e01b600052601160045260246000fd5b6000600182016200054d576200054d62000522565b5060010190565b808201808211156200056a576200056a62000522565b92915050565b610c1980620005806000396000f3fe6080604052600436106100a05760003560e01c80639852595c116100645780639852595c146101ac578063a3f8eace146101e2578063c45ac05014610202578063ce7c2ac214610222578063d79779b214610258578063e33b7de31461028e57600080fd5b806319165587146100ee5780633a98ef3914610110578063406072a91461013457806348b75044146101545780638b83209b1461017457600080fd5b366100e9577f6ef95f06320e7a25a04a175ca677b7052bdd97131872c2192525a629f51be77033604080516001600160a01b0390921682523460208301520160405180910390a1005b600080fd5b3480156100fa57600080fd5b5061010e6101093660046109aa565b6102a3565b005b34801561011c57600080fd5b506000545b6040519081526020015b60405180910390f35b34801561014057600080fd5b5061012161014f3660046109c7565b610393565b34801561016057600080fd5b5061010e61016f3660046109c7565b6103c0565b34801561018057600080fd5b5061019461018f366004610a00565b6104d1565b6040516001600160a01b03909116815260200161012b565b3480156101b857600080fd5b506101216101c73660046109aa565b6001600160a01b031660009081526003602052604090205490565b3480156101ee57600080fd5b506101216101fd3660046109aa565b610501565b34801561020e57600080fd5b5061012161021d3660046109c7565b610549565b34801561022e57600080fd5b5061012161023d3660046109aa565b6001600160a01b031660009081526002602052604090205490565b34801561026457600080fd5b506101216102733660046109aa565b6001600160a01b031660009081526005602052604090205490565b34801561029a57600080fd5b50600154610121565b6001600160a01b0381166000908152600260205260409020546102e15760405162461bcd60e51b81526004016102d890610a19565b60405180910390fd5b60006102ec82610501565b90508060000361030e5760405162461bcd60e51b81526004016102d890610a5f565b80600160008282546103209190610ac0565b90915550506001600160a01b038216600090815260036020526040902080548201905561034d82826105ef565b604080516001600160a01b0384168152602081018390527fdf20fd1e76bc69d672e4814fafb2c449bba3a5369d8359adf9e05e6fde87b056910160405180910390a15050565b6001600160a01b038083166000908152600660209081526040808320938516835292905220545b92915050565b6001600160a01b0381166000908152600260205260409020546103f55760405162461bcd60e51b81526004016102d890610a19565b60006104018383610549565b9050806000036104235760405162461bcd60e51b81526004016102d890610a5f565b6001600160a01b0383166000908152600560205260408120805483929061044b908490610ac0565b90915550506001600160a01b03808416600090815260066020908152604080832093861683529290522080548201905561048683838361070d565b604080516001600160a01b038481168252602082018490528516917f3be5b7a71e84ed12875d241991c70855ac5817d847039e17a9d895c1ceb0f18a910160405180910390a2505050565b6000600482815481106104e6576104e6610ad3565b6000918252602090912001546001600160a01b031692915050565b60008061050d60015490565b6105179047610ac0565b9050610542838261053d866001600160a01b031660009081526003602052604090205490565b61075f565b9392505050565b6001600160a01b03821660009081526005602052604081205481906040516370a0823160e01b81523060048201526001600160a01b038616906370a0823190602401602060405180830381865afa1580156105a8573d6000803e3d6000fd5b505050506040513d601f19601f820116820180604052508101906105cc9190610ae9565b6105d69190610ac0565b90506105e7838261053d8787610393565b949350505050565b8047101561063f5760405162461bcd60e51b815260206004820152601d60248201527f416464726573733a20696e73756666696369656e742062616c616e636500000060448201526064016102d8565b6000826001600160a01b03168260405160006040518083038185875af1925050503d806000811461068c576040519150601f19603f3d011682016040523d82523d6000602084013e610691565b606091505b50509050806107085760405162461bcd60e51b815260206004820152603a60248201527f416464726573733a20756e61626c6520746f2073656e642076616c75652c207260448201527f6563697069656e74206d6179206861766520726576657274656400000000000060648201526084016102d8565b505050565b604080516001600160a01b038416602482015260448082018490528251808303909101815260649091019091526020810180516001600160e01b031663a9059cbb60e01b17905261070890849061079a565b600080546001600160a01b0385168252600260205260408220548391906107869086610b02565b6107909190610b19565b6105e79190610b3b565b60006107ef826040518060400160405280602081526020017f5361666545524332303a206c6f772d6c6576656c2063616c6c206661696c6564815250856001600160a01b031661086f9092919063ffffffff16565b90508051600014806108105750808060200190518101906108109190610b4e565b6107085760405162461bcd60e51b815260206004820152602a60248201527f5361666545524332303a204552433230206f7065726174696f6e20646964206e6044820152691bdd081cdd58d8d9595960b21b60648201526084016102d8565b60606105e7848460008585600080866001600160a01b031685876040516108969190610b94565b60006040518083038185875af1925050503d80600081146108d3576040519150601f19603f3d011682016040523d82523d6000602084013e6108d8565b606091505b50915091506108e9878383876108f4565b979650505050505050565b6060831561096357825160000361095c576001600160a01b0385163b61095c5760405162461bcd60e51b815260206004820152601d60248201527f416464726573733a2063616c6c20746f206e6f6e2d636f6e747261637400000060448201526064016102d8565b50816105e7565b6105e783838151156109785781518083602001fd5b8060405162461bcd60e51b81526004016102d89190610bb0565b6001600160a01b03811681146109a757600080fd5b50565b6000602082840312156109bc57600080fd5b813561054281610992565b600080604083850312156109da57600080fd5b82356109e581610992565b915060208301356109f581610992565b809150509250929050565b600060208284031215610a1257600080fd5b5035919050565b60208082526026908201527f5061796d656e7453706c69747465723a206163636f756e7420686173206e6f2060408201526573686172657360d01b606082015260800190565b6020808252602b908201527f5061796d656e7453706c69747465723a206163636f756e74206973206e6f742060408201526a191d59481c185e5b595b9d60aa1b606082015260800190565b634e487b7160e01b600052601160045260246000fd5b808201808211156103ba576103ba610aaa565b634e487b7160e01b600052603260045260246000fd5b600060208284031215610afb57600080fd5b5051919050565b80820281158282048414176103ba576103ba610aaa565b600082610b3657634e487b7160e01b600052601260045260246000fd5b500490565b818103818111156103ba576103ba610aaa565b600060208284031215610b6057600080fd5b8151801515811461054257600080fd5b60005b83811015610b8b578181015183820152602001610b73565b50506000910152565b60008251610ba6818460208701610b70565b9190910192915050565b6020815260008251806020840152610bcf816040850160208701610b70565b601f01601f1916919091016040019291505056fea26469706673582212204d62241ba759263e116d9159051a8715f0c5832a797af230ae916861cc71e3f064736f6c63430008130033a264697066735822122022bf415213264672e1e886c2d5ff8eecf0b5c543fe1353cb3d9ca9df736fc05264736f6c634300081300336080604052604051620011993803806200119983398101604081905262000026916200042e565b8051825114620000985760405162461bcd60e51b815260206004820152603260248201527f5061796d656e7453706c69747465723a2070617965657320616e6420736861726044820152710cae640d8cadccee8d040dad2e6dac2e8c6d60731b60648201526084015b60405180910390fd5b6000825111620000eb5760405162461bcd60e51b815260206004820152601a60248201527f5061796d656e7453706c69747465723a206e6f2070617965657300000000000060448201526064016200008f565b60005b82518110156200015757620001428382815181106200011157620001116200050c565b60200260200101518383815181106200012e576200012e6200050c565b60200260200101516200016060201b60201c565b806200014e8162000538565b915050620000ee565b50505062000570565b6001600160a01b038216620001cd5760405162461bcd60e51b815260206004820152602c60248201527f5061796d656e7453706c69747465723a206163636f756e74206973207468652060448201526b7a65726f206164647265737360a01b60648201526084016200008f565b600081116200021f5760405162461bcd60e51b815260206004820152601d60248201527f5061796d656e7453706c69747465723a2073686172657320617265203000000060448201526064016200008f565b6001600160a01b038216600090815260026020526040902054156200029b5760405162461bcd60e51b815260206004820152602b60248201527f5061796d656e7453706c69747465723a206163636f756e7420616c726561647960448201526a206861732073686172657360a81b60648201526084016200008f565b60048054600181019091557f8a35acfbc15ff81a39ae7d344fd709f28e8600b4aa8c65c6b64bfe7fe36bd19b0180546001600160a01b0319166001600160a01b0384169081179091556000908152600260205260408120829055546200030390829062000554565b600055604080516001600160a01b0384168152602081018390527f40c340f65e17194d14ddddb073d3c9f888e3cb52b5aae0c6c7706b4fbc905fac910160405180910390a15050565b634e487b7160e01b600052604160045260246000fd5b604051601f8201601f191681016001600160401b03811182821017156200038d576200038d6200034c565b604052919050565b60006001600160401b03821115620003b157620003b16200034c565b5060051b60200190565b600082601f830112620003cd57600080fd5b81516020620003e6620003e08362000395565b62000362565b82815260059290921b840181019181810190868411156200040657600080fd5b8286015b848110156200042357805183529183019183016200040a565b509695505050505050565b600080604083850312156200044257600080fd5b82516001600160401b03808211156200045a57600080fd5b818501915085601f8301126200046f57600080fd5b8151602062000482620003e08362000395565b82815260059290921b84018101918181019089841115620004a257600080fd5b948201945b83861015620004d95785516001600160a01b0381168114620004c95760008081fd5b82529482019490820190620004a7565b91880151919650909350505080821115620004f357600080fd5b506200050285828601620003bb565b9150509250929050565b634e487b7160e01b600052603260045260246000fd5b634e487b7160e01b600052601160045260246000fd5b6000600182016200054d576200054d62000522565b5060010190565b808201808211156200056a576200056a62000522565b92915050565b610c1980620005806000396000f3fe6080604052600436106100a05760003560e01c80639852595c116100645780639852595c146101ac578063a3f8eace146101e2578063c45ac05014610202578063ce7c2ac214610222578063d79779b214610258578063e33b7de31461028e57600080fd5b806319165587146100ee5780633a98ef3914610110578063406072a91461013457806348b75044146101545780638b83209b1461017457600080fd5b366100e9577f6ef95f06320e7a25a04a175ca677b7052bdd97131872c2192525a629f51be77033604080516001600160a01b0390921682523460208301520160405180910390a1005b600080fd5b3480156100fa57600080fd5b5061010e6101093660046109aa565b6102a3565b005b34801561011c57600080fd5b506000545b6040519081526020015b60405180910390f35b34801561014057600080fd5b5061012161014f3660046109c7565b610393565b34801561016057600080fd5b5061010e61016f3660046109c7565b6103c0565b34801561018057600080fd5b5061019461018f366004610a00565b6104d1565b6040516001600160a01b03909116815260200161012b565b3480156101b857600080fd5b506101216101c73660046109aa565b6001600160a01b031660009081526003602052604090205490565b3480156101ee57600080fd5b506101216101fd3660046109aa565b610501565b34801561020e57600080fd5b5061012161021d3660046109c7565b610549565b34801561022e57600080fd5b5061012161023d3660046109aa565b6001600160a01b031660009081526002602052604090205490565b34801561026457600080fd5b506101216102733660046109aa565b6001600160a01b031660009081526005602052604090205490565b34801561029a57600080fd5b50600154610121565b6001600160a01b0381166000908152600260205260409020546102e15760405162461bcd60e51b81526004016102d890610a19565b60405180910390fd5b60006102ec82610501565b90508060000361030e5760405162461bcd60e51b81526004016102d890610a5f565b80600160008282546103209190610ac0565b90915550506001600160a01b038216600090815260036020526040902080548201905561034d82826105ef565b604080516001600160a01b0384168152602081018390527fdf20fd1e76bc69d672e4814fafb2c449bba3a5369d8359adf9e05e6fde87b056910160405180910390a15050565b6001600160a01b038083166000908152600660209081526040808320938516835292905220545b92915050565b6001600160a01b0381166000908152600260205260409020546103f55760405162461bcd60e51b81526004016102d890610a19565b60006104018383610549565b9050806000036104235760405162461bcd60e51b81526004016102d890610a5f565b6001600160a01b0383166000908152600560205260408120805483929061044b908490610ac0565b90915550506001600160a01b03808416600090815260066020908152604080832093861683529290522080548201905561048683838361070d565b604080516001600160a01b038481168252602082018490528516917f3be5b7a71e84ed12875d241991c70855ac5817d847039e17a9d895c1ceb0f18a910160405180910390a2505050565b6000600482815481106104e6576104e6610ad3565b6000918252602090912001546001600160a01b031692915050565b60008061050d60015490565b6105179047610ac0565b9050610542838261053d866001600160a01b031660009081526003602052604090205490565b61075f565b9392505050565b6001600160a01b03821660009081526005602052604081205481906040516370a0823160e01b81523060048201526001600160a01b038616906370a0823190602401602060405180830381865afa1580156105a8573d6000803e3d6000fd5b505050506040513d601f19601f820116820180604052508101906105cc9190610ae9565b6105d69190610ac0565b90506105e7838261053d8787610393565b949350505050565b8047101561063f5760405162461bcd60e51b815260206004820152601d60248201527f416464726573733a20696e73756666696369656e742062616c616e636500000060448201526064016102d8565b6000826001600160a01b03168260405160006040518083038185875af1925050503d806000811461068c576040519150601f19603f3d011682016040523d82523d6000602084013e610691565b606091505b50509050806107085760405162461bcd60e51b815260206004820152603a60248201527f416464726573733a20756e61626c6520746f2073656e642076616c75652c207260448201527f6563697069656e74206d6179206861766520726576657274656400000000000060648201526084016102d8565b505050565b604080516001600160a01b038416602482015260448082018490528251808303909101815260649091019091526020810180516001600160e01b031663a9059cbb60e01b17905261070890849061079a565b600080546001600160a01b0385168252600260205260408220548391906107869086610b02565b6107909190610b19565b6105e79190610b3b565b60006107ef826040518060400160405280602081526020017f5361666545524332303a206c6f772d6c6576656c2063616c6c206661696c6564815250856001600160a01b031661086f9092919063ffffffff16565b90508051600014806108105750808060200190518101906108109190610b4e565b6107085760405162461bcd60e51b815260206004820152602a60248201527f5361666545524332303a204552433230206f7065726174696f6e20646964206e6044820152691bdd081cdd58d8d9595960b21b60648201526084016102d8565b60606105e7848460008585600080866001600160a01b031685876040516108969190610b94565b60006040518083038185875af1925050503d80600081146108d3576040519150601f19603f3d011682016040523d82523d6000602084013e6108d8565b606091505b50915091506108e9878383876108f4565b979650505050505050565b6060831561096357825160000361095c576001600160a01b0385163b61095c5760405162461bcd60e51b815260206004820152601d60248201527f416464726573733a2063616c6c20746f206e6f6e2d636f6e747261637400000060448201526064016102d8565b50816105e7565b6105e783838151156109785781518083602001fd5b8060405162461bcd60e51b81526004016102d89190610bb0565b6001600160a01b03811681146109a757600080fd5b50565b6000602082840312156109bc57600080fd5b813561054281610992565b600080604083850312156109da57600080fd5b82356109e581610992565b915060208301356109f581610992565b809150509250929050565b600060208284031215610a1257600080fd5b5035919050565b60208082526026908201527f5061796d656e7453706c69747465723a206163636f756e7420686173206e6f2060408201526573686172657360d01b606082015260800190565b6020808252602b908201527f5061796d656e7453706c69747465723a206163636f756e74206973206e6f742060408201526a191d59481c185e5b595b9d60aa1b606082015260800190565b634e487b7160e01b600052601160045260246000fd5b808201808211156103ba576103ba610aaa565b634e487b7160e01b600052603260045260246000fd5b600060208284031215610afb57600080fd5b5051919050565b80820281158282048414176103ba576103ba610aaa565b600082610b3657634e487b7160e01b600052601260045260246000fd5b500490565b818103818111156103ba576103ba610aaa565b600060208284031215610b6057600080fd5b8151801515811461054257600080fd5b60005b83811015610b8b578181015183820152602001610b73565b50506000910152565b60008251610ba6818460208701610b70565b9190910192915050565b6020815260008251806020840152610bcf816040850160208701610b70565b601f01601f1916919091016040019291505056fea26469706673582212204d62241ba759263e116d9159051a8715f0c5832a797af230ae916861cc71e3f064736f6c63430008130033",
  "linkReferences": {},
  "deployedLinkReferences": {}
}